{
  "_format": "hh-sol-artifact-1",
  "contractName": "BlueberryPayOrderBook",
  "sourceName": "src/contracts/BlueberryPayOrderBook.sol",
  "abi": [
    {
      "inputs": [],
      "stateMutability": "nonpayable",
      "type": "constructor"
    },
    {
      "anonymous": false,
      "inputs": [
        {
          "indexed": true,
          "internalType": "address",
          "name": "_seller",
          "type": "address"
        },
        {
          "indexed": true,
          "internalType": "address",
          "name": "_customer",
          "type": "address"
        },
        {
          "indexed": true,
          "internalType": "uint256",
          "name": "_orderID",
          "type": "uint256"
        },
        {
          "indexed": false,
          "internalType": "uint256",
          "name": "_amount",
          "type": "uint256"
        },
        {
          "indexed": false,
          "internalType": "enum BlueberryPayOrderBook.Status",
          "name": "_status",
          "type": "uint8"
        }
      ],
      "name": "OrderCreated",
      "type": "event"
    },
    {
      "anonymous": false,
      "inputs": [
        {
          "indexed": true,
          "internalType": "address",
          "name": "_seller",
          "type": "address"
        },
        {
          "indexed": true,
          "internalType": "address",
          "name": "_customer",
          "type": "address"
        },
        {
          "indexed": true,
          "internalType": "uint256",
          "name": "_orderID",
          "type": "uint256"
        },
        {
          "indexed": false,
          "internalType": "uint256",
          "name": "_amount",
          "type": "uint256"
        },
        {
          "indexed": false,
          "internalType": "enum BlueberryPayOrderBook.Status",
          "name": "_status",
          "type": "uint8"
        }
      ],
      "name": "OrderUpdated",
      "type": "event"
    },
    {
      "inputs": [
        {
          "internalType": "address",
          "name": "_seller",
          "type": "address"
        },
        {
          "internalType": "address",
          "name": "_customer",
          "type": "address"
        },
        {
          "internalType": "uint256",
          "name": "_amount",
          "type": "uint256"
        },
        {
          "internalType": "uint256",
          "name": "_orderID",
          "type": "uint256"
        },
        {
          "internalType": "enum BlueberryPayOrderBook.Status",
          "name": "_status",
          "type": "uint8"
        }
      ],
      "name": "addOrder",
      "outputs": [
        {
          "internalType": "bool",
          "name": "status",
          "type": "bool"
        }
      ],
      "stateMutability": "nonpayable",
      "type": "function"
    },
    {
      "inputs": [
        {
          "internalType": "address",
          "name": "_from",
          "type": "address"
        },
        {
          "internalType": "uint256",
          "name": "_orderID",
          "type": "uint256"
        },
        {
          "internalType": "enum BlueberryPayOrderBook.Status",
          "name": "status",
          "type": "uint8"
        }
      ],
      "name": "cancelOrder",
      "outputs": [
        {
          "internalType": "bool",
          "name": "",
          "type": "bool"
        }
      ],
      "stateMutability": "nonpayable",
      "type": "function"
    },
    {
      "inputs": [
        {
          "internalType": "address",
          "name": "_from",
          "type": "address"
        },
        {
          "internalType": "uint256",
          "name": "_orderID",
          "type": "uint256"
        },
        {
          "internalType": "enum BlueberryPayOrderBook.Status",
          "name": "status",
          "type": "uint8"
        }
      ],
      "name": "confirmReceiptTheCustomer",
      "outputs": [
        {
          "internalType": "bool",
          "name": "",
          "type": "bool"
        }
      ],
      "stateMutability": "nonpayable",
      "type": "function"
    },
    {
      "inputs": [],
      "name": "deliveryTime",
      "outputs": [
        {
          "internalType": "uint256",
          "name": "",
          "type": "uint256"
        }
      ],
      "stateMutability": "view",
      "type": "function"
    },
    {
      "inputs": [],
      "name": "factory",
      "outputs": [
        {
          "internalType": "address",
          "name": "",
          "type": "address"
        }
      ],
      "stateMutability": "view",
      "type": "function"
    },
    {
      "inputs": [
        {
          "internalType": "uint256",
          "name": "",
          "type": "uint256"
        }
      ],
      "name": "getOrder",
      "outputs": [
        {
          "internalType": "uint256",
          "name": "orderID",
          "type": "uint256"
        },
        {
          "internalType": "address",
          "name": "seller",
          "type": "address"
        },
        {
          "internalType": "address",
          "name": "customer",
          "type": "address"
        },
        {
          "internalType": "enum BlueberryPayOrderBook.Status",
          "name": "status",
          "type": "uint8"
        },
        {
          "internalType": "uint256",
          "name": "amount",
          "type": "uint256"
        },
        {
          "internalType": "uint256",
          "name": "deadline",
          "type": "uint256"
        }
      ],
      "stateMutability": "view",
      "type": "function"
    },
    {
      "inputs": [
        {
          "internalType": "uint256",
          "name": "_orderID",
          "type": "uint256"
        }
      ],
      "name": "getOrderAmount",
      "outputs": [
        {
          "internalType": "uint256",
          "name": "",
          "type": "uint256"
        }
      ],
      "stateMutability": "view",
      "type": "function"
    },
    {
      "inputs": [
        {
          "internalType": "uint256",
          "name": "_orderID",
          "type": "uint256"
        }
      ],
      "name": "getOrderData",
      "outputs": [
        {
          "components": [
            {
              "internalType": "uint256",
              "name": "orderID",
              "type": "uint256"
            },
            {
              "internalType": "address",
              "name": "seller",
              "type": "address"
            },
            {
              "internalType": "address",
              "name": "customer",
              "type": "address"
            },
            {
              "internalType": "enum BlueberryPayOrderBook.Status",
              "name": "status",
              "type": "uint8"
            },
            {
              "internalType": "uint256",
              "name": "amount",
              "type": "uint256"
            },
            {
              "internalType": "uint256",
              "name": "deadline",
              "type": "uint256"
            }
          ],
          "internalType": "struct BlueberryPayOrderBook.Order",
          "name": "",
          "type": "tuple"
        }
      ],
      "stateMutability": "view",
      "type": "function"
    },
    {
      "inputs": [
        {
          "internalType": "address",
          "name": "_from",
          "type": "address"
        },
        {
          "internalType": "uint256",
          "name": "_orderID",
          "type": "uint256"
        }
      ],
      "name": "getOrderStatus",
      "outputs": [
        {
          "internalType": "enum BlueberryPayOrderBook.Status",
          "name": "status",
          "type": "uint8"
        }
      ],
      "stateMutability": "view",
      "type": "function"
    },
    {
      "inputs": [
        {
          "internalType": "address",
          "name": "_paymentSystemUID",
          "type": "address"
        },
        {
          "internalType": "address",
          "name": "_mediator",
          "type": "address"
        }
      ],
      "name": "initialize",
      "outputs": [],
      "stateMutability": "nonpayable",
      "type": "function"
    },
    {
      "inputs": [],
      "name": "mediator",
      "outputs": [
        {
          "internalType": "address",
          "name": "",
          "type": "address"
        }
      ],
      "stateMutability": "view",
      "type": "function"
    },
    {
      "inputs": [],
      "name": "paymentSystemUID",
      "outputs": [
        {
          "internalType": "address",
          "name": "",
          "type": "address"
        }
      ],
      "stateMutability": "view",
      "type": "function"
    },
    {
      "inputs": [
        {
          "internalType": "address",
          "name": "_from",
          "type": "address"
        },
        {
          "internalType": "uint256",
          "name": "_days",
          "type": "uint256"
        }
      ],
      "name": "setDeliveryTime",
      "outputs": [],
      "stateMutability": "nonpayable",
      "type": "function"
    },
    {
      "inputs": [
        {
          "internalType": "address",
          "name": "_from",
          "type": "address"
        },
        {
          "internalType": "uint256",
          "name": "_orderID",
          "type": "uint256"
        },
        {
          "internalType": "enum BlueberryPayOrderBook.Status",
          "name": "status",
          "type": "uint8"
        }
      ],
      "name": "setState",
      "outputs": [
        {
          "internalType": "bool",
          "name": "",
          "type": "bool"
        }
      ],
      "stateMutability": "nonpayable",
      "type": "function"
    },
    {
      "inputs": [
        {
          "internalType": "uint256",
          "name": "_orderID",
          "type": "uint256"
        }
      ],
      "name": "setStateCompleted",
      "outputs": [
        {
          "internalType": "bool",
          "name": "",
          "type": "bool"
        }
      ],
      "stateMutability": "nonpayable",
      "type": "function"
    }
  ],
  "bytecode": "0x60a060405261012c60025534801561001657600080fd5b5033606081901b6080526113c561003f6000396000818161022e01526106bb01526113c56000f3fe608060405234801561001057600080fd5b50600436106100f55760003560e01c806395178c6811610097578063c45a015511610066578063c45a015514610229578063d09ef24114610250578063d119973f146102b9578063d6b264a6146102cc57600080fd5b806395178c68146101c3578063a80a3baa146101e3578063bde22c1a14610203578063be32924c1461021657600080fd5b8063485cc955116100d3578063485cc9551461014c5780634fce63d61461016157806367bb1fcf146101745780636d0501f61461019857600080fd5b806309aadde9146100fa57806345fe5a831461012257806346bdb53314610139575b600080fd5b61010d6101083660046111cf565b6102df565b60405190151581526020015b60405180910390f35b61012b60025481565b604051908152602001610119565b61010d61014736600461120a565b61051f565b61015f61015a36600461111e565b6106b0565b005b61010d61016f3660046111cf565b610756565b61012b61018236600461120a565b6000908152600360208190526040909120015490565b6001546101ab906001600160a01b031681565b6040516001600160a01b039091168152602001610119565b6101d66101d136600461120a565b6109bf565b6040516101199190611296565b6101f66101f13660046111a6565b610aa8565b6040516101199190611244565b61010d610211366004611150565b610c0f565b61015f6102243660046111a6565b610d77565b6101ab7f000000000000000000000000000000000000000000000000000000000000000081565b6102a761025e36600461120a565b60036020819052600091825260409091208054600182015460028301549383015460049093015491936001600160a01b039182169391811692600160a01b90910460ff16919086565b604051610119969594939291906112f1565b61010d6102c73660046111cf565b610ddd565b6000546101ab906001600160a01b031681565b6000828180600083815260036020526040902060020154600160a01b900460ff16600581111561031f57634e487b7160e01b600052602160045260246000fd5b146103455760405162461bcd60e51b815260040161033c90611252565b60405180910390fd5b6000858152600360209081526040808320815160c0810183528154815260018201546001600160a01b039081169482019490945260028201549384169281019290925290916060830190600160a01b900460ff1660058111156103b857634e487b7160e01b600052602160045260246000fd5b60058111156103d757634e487b7160e01b600052602160045260246000fd5b8152602001600382015481526020016004820154815250509050866001600160a01b031681602001516001600160a01b0316148061042a5750866001600160a01b031681604001516001600160a01b0316145b6104815760405162461bcd60e51b815260206004820152602260248201527f42504f423a3a4f6e6c7920637573746f6d65722f73656c6c657220616c6c6f77604482015261195960f21b606482015260840161033c565b606081018560058111156104a557634e487b7160e01b600052602160045260246000fd5b908160058111156104c657634e487b7160e01b600052602160045260246000fd5b815250508581604001516001600160a01b031682602001516001600160a01b031660008051602061137083398151915284608001518960405161050a929190611330565b60405180910390a45060019695505050505050565b600080546001600160a01b031633146105885760405162461bcd60e51b815260206004820152602560248201527f42504f423a3a4f6e6c7920616c6c6f7765642066726f6d205061796d656e7453604482015264797374656d60d81b606482015260840161033c565b6000828152600360209081526040808320815160c0810183528154815260018201546001600160a01b039081169482019490945260028201549384169281019290925290916060830190600160a01b900460ff1660058111156105fb57634e487b7160e01b600052602160045260246000fd5b600581111561061a57634e487b7160e01b600052602160045260246000fd5b815260038281015460208084019190915260049093015460409283015260008781529281905291206002018054929350909160ff60a01b1916600160a01b8302179055508281604001516001600160a01b031682602001516001600160a01b03166000805160206113708339815191528460800151600360405161069f929190611330565b60405180910390a450600192915050565b336001600160a01b037f000000000000000000000000000000000000000000000000000000000000000016146107285760405162461bcd60e51b815260206004820152601a60248201527f42504f423a3a696e697469616c697a6520464f5242494444454e000000000000604482015260640161033c565b600080546001600160a01b039384166001600160a01b03199182161790915560018054929093169116179055565b600082600180600083815260036020526040902060020154600160a01b900460ff16600581111561079757634e487b7160e01b600052602160045260246000fd5b146107b45760405162461bcd60e51b815260040161033c90611252565b6000858152600360209081526040808320815160c0810183528154815260018201546001600160a01b039081169482019490945260028201549384169281019290925290916060830190600160a01b900460ff16600581111561082757634e487b7160e01b600052602160045260246000fd5b600581111561084657634e487b7160e01b600052602160045260246000fd5b8152602001600382015481526020016004820154815250509050866001600160a01b031681604001516001600160a01b0316146108bb5760405162461bcd60e51b8152602060048201526013602482015272212827a11d1d102737ba1021bab9ba37b6b2b960691b604482015260640161033c565b60028560058111156108dd57634e487b7160e01b600052602160045260246000fd5b146109385760405162461bcd60e51b815260206004820152602560248201527f42504f423a3a437573746f6d65722063616e206f6e6c79207365742044656c696044820152641d995c995960da1b606482015260840161033c565b6000868152600360205260409020600201805486919060ff60a01b1916600160a01b83600581111561097a57634e487b7160e01b600052602160045260246000fd5b02179055508581604001516001600160a01b031682602001516001600160a01b031660008051602061137083398151915284608001518960405161050a929190611330565b6109f86040805160c081018252600080825260208201819052918101829052906060820190815260200160008152602001600081525090565b600082815260036020908152604091829020825160c0810184528154815260018201546001600160a01b0390811693820193909352600282015492831693810193909352906060830190600160a01b900460ff166005811115610a6b57634e487b7160e01b600052602160045260246000fd5b6005811115610a8a57634e487b7160e01b600052602160045260246000fd5b81526003820154602082015260049091015460409091015292915050565b6000818152600360209081526040808320815160c0810183528154815260018201546001600160a01b039081169482019490945260028201549384169281019290925285928592859290916060830190600160a01b900460ff166005811115610b2157634e487b7160e01b600052602160045260246000fd5b6005811115610b4057634e487b7160e01b600052602160045260246000fd5b8152602001600382015481526020016004820154815250509050826001600160a01b031681602001516001600160a01b03161480610b935750826001600160a01b031681604001516001600160a01b0316145b610bea5760405162461bcd60e51b815260206004820152602260248201527f42504f423a3a4f6e6c792053656c6c65722f437573746f6d657220616c6c6f77604482015261195960f21b606482015260840161033c565b50505060009182525060036020526040902060020154600160a01b900460ff16919050565b600082815260036020526040812054831415610cc757610c2f8383610f86565b9050600181151514610c835760405162461bcd60e51b815260206004820152601760248201527f42504f423a3a4f72646572206e6f742075706461746564000000000000000000604482015260640161033c565b82856001600160a01b0316876001600160a01b03166000805160206113708339815191528786604051610cb7929190611330565b60405180910390a4506001610d6e565b610cd48686858786610fd8565b9050600181151514610d285760405162461bcd60e51b815260206004820152601760248201527f42504f423a3a4f72646572206e6f742063726561746564000000000000000000604482015260640161033c565b82856001600160a01b0316876001600160a01b03167ffbff9be164e8afe03e870c0f8dd48e36841ff148f5a615a58d816089fcb5337c8786604051610cb7929190611330565b95945050505050565b60015482906001600160a01b03808316911614610dd65760405162461bcd60e51b815260206004820152601b60248201527f42504f423a3a4f6e6c79204d65646961746f7220616c6c6f7765640000000000604482015260640161033c565b5060025550565b60015460009084906001600160a01b03808316911614610e3f5760405162461bcd60e51b815260206004820152601b60248201527f42504f423a3a4f6e6c79204d65646961746f7220616c6c6f7765640000000000604482015260640161033c565b6000848152600360209081526040808320815160c0810183528154815260018201546001600160a01b039081169482019490945260028201549384169281019290925290916060830190600160a01b900460ff166005811115610eb257634e487b7160e01b600052602160045260246000fd5b6005811115610ed157634e487b7160e01b600052602160045260246000fd5b81526003828101546020808401919091526004909301546040928301526000898152925290206002018054919250859160ff60a01b1916600160a01b836005811115610f2d57634e487b7160e01b600052602160045260246000fd5b02179055508481604001516001600160a01b031682602001516001600160a01b0316600080516020611370833981519152846080015188604051610f72929190611330565b60405180910390a450600195945050505050565b6000828152600360205260408120600201805483919060ff60a01b1916600160a01b836005811115610fc857634e487b7160e01b600052602160045260246000fd5b0217905550600190505b92915050565b60006040518060c00160405280858152602001876001600160a01b03168152602001866001600160a01b0316815260200183600581111561102957634e487b7160e01b600052602160045260246000fd5b815260200184815260200160025442611042919061134b565b905260008581526003602090815260409182902083518155908301516001820180546001600160a01b03199081166001600160a01b039384161790915592840151600283018054948516919092169081178255606085015192936001600160a81b03191617600160a01b8360058111156110cc57634e487b7160e01b600052602160045260246000fd5b02179055506080820151600382015560a09091015160049091015550600195945050505050565b80356001600160a01b038116811461110a57600080fd5b919050565b80356006811061110a57600080fd5b60008060408385031215611130578182fd5b611139836110f3565b9150611147602084016110f3565b90509250929050565b600080600080600060a08688031215611167578081fd5b611170866110f3565b945061117e602087016110f3565b9350604086013592506060860135915061119a6080870161110f565b90509295509295909350565b600080604083850312156111b8578182fd5b6111c1836110f3565b946020939093013593505050565b6000806000606084860312156111e3578283fd5b6111ec846110f3565b9250602084013591506112016040850161110f565b90509250925092565b60006020828403121561121b578081fd5b5035919050565b6006811061124057634e487b7160e01b600052602160045260246000fd5b9052565b60208101610fd28284611222565b60208082526024908201527f42504f423a3a4f726465725374617465204e6f742065787065637465642073746040820152636174757360e01b606082015260800190565b815181526020808301516001600160a01b03908116918301919091526040808401519091169082015260608083015160c08301916112d690840182611222565b506080830151608083015260a083015160a083015292915050565b8681526001600160a01b0386811660208301528516604082015260c0810161131c6060830186611222565b608082019390935260a00152949350505050565b828152604081016113446020830184611222565b9392505050565b6000821982111561136a57634e487b7160e01b81526011600452602481fd5b50019056febb558edb5820d99dd1387c34ce750cf2c4dd57b4637ef610f560b06366ccb83da26469706673582212207a910bb103467ba5500c1d9da8adc860869d4467fb37bbff7fdb425a4c71916264736f6c63430008040033",
  "linkReferences": {},
  "deployedLinkReferences": {}
}