{
  "_format": "hh-sol-artifact-1",
  "contractName": "BlueberryPaymentSystem",
  "sourceName": "src/contracts/BlueberryPaymentSystem.sol",
  "abi": [
    {
      "inputs": [],
      "stateMutability": "nonpayable",
      "type": "constructor"
    },
    {
      "anonymous": false,
      "inputs": [
        {
          "indexed": true,
          "internalType": "address",
          "name": "owner",
          "type": "address"
        },
        {
          "indexed": true,
          "internalType": "address",
          "name": "spender",
          "type": "address"
        },
        {
          "indexed": false,
          "internalType": "uint256",
          "name": "value",
          "type": "uint256"
        }
      ],
      "name": "Approval",
      "type": "event"
    },
    {
      "anonymous": false,
      "inputs": [
        {
          "indexed": true,
          "internalType": "address",
          "name": "token",
          "type": "address"
        },
        {
          "indexed": true,
          "internalType": "address",
          "name": "to",
          "type": "address"
        },
        {
          "indexed": false,
          "internalType": "uint256",
          "name": "amount",
          "type": "uint256"
        }
      ],
      "name": "Burn",
      "type": "event"
    },
    {
      "anonymous": false,
      "inputs": [
        {
          "indexed": true,
          "internalType": "address",
          "name": "sender",
          "type": "address"
        },
        {
          "indexed": false,
          "internalType": "uint256",
          "name": "liquidity",
          "type": "uint256"
        }
      ],
      "name": "Mint",
      "type": "event"
    },
    {
      "anonymous": false,
      "inputs": [
        {
          "indexed": true,
          "internalType": "address",
          "name": "from",
          "type": "address"
        },
        {
          "indexed": true,
          "internalType": "address",
          "name": "to",
          "type": "address"
        },
        {
          "indexed": false,
          "internalType": "uint256",
          "name": "value",
          "type": "uint256"
        }
      ],
      "name": "Transfer",
      "type": "event"
    },
    {
      "inputs": [],
      "name": "DOMAIN_SEPARATOR",
      "outputs": [
        {
          "internalType": "bytes32",
          "name": "",
          "type": "bytes32"
        }
      ],
      "stateMutability": "view",
      "type": "function"
    },
    {
      "inputs": [],
      "name": "PERMIT_TYPEHASH",
      "outputs": [
        {
          "internalType": "bytes32",
          "name": "",
          "type": "bytes32"
        }
      ],
      "stateMutability": "view",
      "type": "function"
    },
    {
      "inputs": [],
      "name": "WETH",
      "outputs": [
        {
          "internalType": "address",
          "name": "",
          "type": "address"
        }
      ],
      "stateMutability": "view",
      "type": "function"
    },
    {
      "inputs": [
        {
          "internalType": "address",
          "name": "",
          "type": "address"
        },
        {
          "internalType": "address",
          "name": "",
          "type": "address"
        }
      ],
      "name": "allowance",
      "outputs": [
        {
          "internalType": "uint256",
          "name": "",
          "type": "uint256"
        }
      ],
      "stateMutability": "view",
      "type": "function"
    },
    {
      "inputs": [
        {
          "internalType": "address",
          "name": "spender",
          "type": "address"
        },
        {
          "internalType": "uint256",
          "name": "value",
          "type": "uint256"
        }
      ],
      "name": "approve",
      "outputs": [
        {
          "internalType": "bool",
          "name": "",
          "type": "bool"
        }
      ],
      "stateMutability": "nonpayable",
      "type": "function"
    },
    {
      "inputs": [
        {
          "internalType": "address",
          "name": "",
          "type": "address"
        }
      ],
      "name": "balanceOf",
      "outputs": [
        {
          "internalType": "uint256",
          "name": "",
          "type": "uint256"
        }
      ],
      "stateMutability": "view",
      "type": "function"
    },
    {
      "inputs": [
        {
          "internalType": "address",
          "name": "_token",
          "type": "address"
        },
        {
          "internalType": "address",
          "name": "_from",
          "type": "address"
        },
        {
          "internalType": "address",
          "name": "_seller",
          "type": "address"
        },
        {
          "internalType": "uint256",
          "name": "_orderID",
          "type": "uint256"
        },
        {
          "internalType": "uint256",
          "name": "_orderAmount",
          "type": "uint256"
        }
      ],
      "name": "burnCustomer",
      "outputs": [
        {
          "internalType": "bool",
          "name": "",
          "type": "bool"
        }
      ],
      "stateMutability": "nonpayable",
      "type": "function"
    },
    {
      "inputs": [
        {
          "internalType": "address",
          "name": "_from",
          "type": "address"
        },
        {
          "internalType": "address",
          "name": "_seller",
          "type": "address"
        },
        {
          "internalType": "uint256",
          "name": "_orderID",
          "type": "uint256"
        },
        {
          "internalType": "uint256",
          "name": "_orderAmount",
          "type": "uint256"
        }
      ],
      "name": "burnCustomerAVAX",
      "outputs": [
        {
          "internalType": "bool",
          "name": "",
          "type": "bool"
        }
      ],
      "stateMutability": "nonpayable",
      "type": "function"
    },
    {
      "inputs": [
        {
          "internalType": "address",
          "name": "_token",
          "type": "address"
        }
      ],
      "name": "burnFees",
      "outputs": [
        {
          "internalType": "bool",
          "name": "",
          "type": "bool"
        }
      ],
      "stateMutability": "nonpayable",
      "type": "function"
    },
    {
      "inputs": [],
      "name": "burnFeesAVAX",
      "outputs": [
        {
          "internalType": "bool",
          "name": "",
          "type": "bool"
        }
      ],
      "stateMutability": "nonpayable",
      "type": "function"
    },
    {
      "inputs": [
        {
          "internalType": "address",
          "name": "_token",
          "type": "address"
        },
        {
          "internalType": "address",
          "name": "_from",
          "type": "address"
        },
        {
          "internalType": "uint256",
          "name": "_orderID",
          "type": "uint256"
        },
        {
          "internalType": "uint256",
          "name": "_orderAmount",
          "type": "uint256"
        }
      ],
      "name": "burnSeller",
      "outputs": [
        {
          "internalType": "bool",
          "name": "",
          "type": "bool"
        }
      ],
      "stateMutability": "nonpayable",
      "type": "function"
    },
    {
      "inputs": [
        {
          "internalType": "address",
          "name": "_from",
          "type": "address"
        },
        {
          "internalType": "uint256",
          "name": "_orderID",
          "type": "uint256"
        },
        {
          "internalType": "uint256",
          "name": "_orderAmount",
          "type": "uint256"
        }
      ],
      "name": "burnSellerAVAX",
      "outputs": [
        {
          "internalType": "bool",
          "name": "status",
          "type": "bool"
        }
      ],
      "stateMutability": "nonpayable",
      "type": "function"
    },
    {
      "inputs": [],
      "name": "decimals",
      "outputs": [
        {
          "internalType": "uint8",
          "name": "",
          "type": "uint8"
        }
      ],
      "stateMutability": "view",
      "type": "function"
    },
    {
      "inputs": [],
      "name": "factory",
      "outputs": [
        {
          "internalType": "address",
          "name": "",
          "type": "address"
        }
      ],
      "stateMutability": "view",
      "type": "function"
    },
    {
      "inputs": [
        {
          "internalType": "address",
          "name": "_paymentSystemUID",
          "type": "address"
        },
        {
          "internalType": "address",
          "name": "_WETH",
          "type": "address"
        },
        {
          "internalType": "address",
          "name": "_orderUID",
          "type": "address"
        },
        {
          "internalType": "address",
          "name": "_paymentSystemOwner",
          "type": "address"
        }
      ],
      "name": "initialize",
      "outputs": [],
      "stateMutability": "nonpayable",
      "type": "function"
    },
    {
      "inputs": [
        {
          "internalType": "address",
          "name": "_customer",
          "type": "address"
        },
        {
          "internalType": "address",
          "name": "_seller",
          "type": "address"
        },
        {
          "internalType": "uint256",
          "name": "_amountIn",
          "type": "uint256"
        },
        {
          "internalType": "uint256",
          "name": "_feeAmount",
          "type": "uint256"
        },
        {
          "internalType": "uint256",
          "name": "_orderID",
          "type": "uint256"
        },
        {
          "internalType": "enum IBlueberryPayOrderBook.Status",
          "name": "_status",
          "type": "uint8"
        }
      ],
      "name": "mint",
      "outputs": [],
      "stateMutability": "nonpayable",
      "type": "function"
    },
    {
      "inputs": [],
      "name": "name",
      "outputs": [
        {
          "internalType": "string",
          "name": "",
          "type": "string"
        }
      ],
      "stateMutability": "view",
      "type": "function"
    },
    {
      "inputs": [
        {
          "internalType": "address",
          "name": "",
          "type": "address"
        }
      ],
      "name": "nonces",
      "outputs": [
        {
          "internalType": "uint256",
          "name": "",
          "type": "uint256"
        }
      ],
      "stateMutability": "view",
      "type": "function"
    },
    {
      "inputs": [],
      "name": "orderBookUID",
      "outputs": [
        {
          "internalType": "address",
          "name": "",
          "type": "address"
        }
      ],
      "stateMutability": "view",
      "type": "function"
    },
    {
      "inputs": [],
      "name": "paymentSystemActive",
      "outputs": [
        {
          "internalType": "bool",
          "name": "",
          "type": "bool"
        }
      ],
      "stateMutability": "view",
      "type": "function"
    },
    {
      "inputs": [],
      "name": "paymentSystemOwner",
      "outputs": [
        {
          "internalType": "address",
          "name": "",
          "type": "address"
        }
      ],
      "stateMutability": "view",
      "type": "function"
    },
    {
      "inputs": [],
      "name": "paymentSystemUID",
      "outputs": [
        {
          "internalType": "address",
          "name": "",
          "type": "address"
        }
      ],
      "stateMutability": "view",
      "type": "function"
    },
    {
      "inputs": [
        {
          "internalType": "address",
          "name": "owner",
          "type": "address"
        },
        {
          "internalType": "address",
          "name": "spender",
          "type": "address"
        },
        {
          "internalType": "uint256",
          "name": "value",
          "type": "uint256"
        },
        {
          "internalType": "uint256",
          "name": "deadline",
          "type": "uint256"
        },
        {
          "internalType": "uint8",
          "name": "v",
          "type": "uint8"
        },
        {
          "internalType": "bytes32",
          "name": "r",
          "type": "bytes32"
        },
        {
          "internalType": "bytes32",
          "name": "s",
          "type": "bytes32"
        }
      ],
      "name": "permit",
      "outputs": [],
      "stateMutability": "nonpayable",
      "type": "function"
    },
    {
      "inputs": [
        {
          "internalType": "address",
          "name": "_from",
          "type": "address"
        },
        {
          "internalType": "bool",
          "name": "_state",
          "type": "bool"
        }
      ],
      "name": "setPaymentSystemState",
      "outputs": [
        {
          "internalType": "bool",
          "name": "status",
          "type": "bool"
        }
      ],
      "stateMutability": "nonpayable",
      "type": "function"
    },
    {
      "inputs": [],
      "name": "symbol",
      "outputs": [
        {
          "internalType": "string",
          "name": "",
          "type": "string"
        }
      ],
      "stateMutability": "view",
      "type": "function"
    },
    {
      "inputs": [],
      "name": "totalSupply",
      "outputs": [
        {
          "internalType": "uint256",
          "name": "",
          "type": "uint256"
        }
      ],
      "stateMutability": "view",
      "type": "function"
    },
    {
      "inputs": [
        {
          "internalType": "address",
          "name": "to",
          "type": "address"
        },
        {
          "internalType": "uint256",
          "name": "value",
          "type": "uint256"
        }
      ],
      "name": "transfer",
      "outputs": [
        {
          "internalType": "bool",
          "name": "",
          "type": "bool"
        }
      ],
      "stateMutability": "nonpayable",
      "type": "function"
    },
    {
      "inputs": [
        {
          "internalType": "address",
          "name": "from",
          "type": "address"
        },
        {
          "internalType": "address",
          "name": "to",
          "type": "address"
        },
        {
          "internalType": "uint256",
          "name": "value",
          "type": "uint256"
        }
      ],
      "name": "transferFrom",
      "outputs": [
        {
          "internalType": "bool",
          "name": "",
          "type": "bool"
        }
      ],
      "stateMutability": "nonpayable",
      "type": "function"
    },
    {
      "stateMutability": "payable",
      "type": "receive"
    }
  ],
  "bytecode": "0x60a06040526008805460ff60a01b1916600160a01b17905560056009556001600a5534801561002d57600080fd5b50604080518082018252601481527f426c756562657272795061796d656e74204c50730000000000000000000000006020918201528151808301835260018152603160f81b9082015281517f8b73c3c69bb8fe3d512ecc4cf759cc79239f7b179b0ffacaa9a75d522b39400f918101919091527f2d343c199841150b9255d2f9a2a80c625681ad3930c5c26b9ae5ae664bef2f2d918101919091527fc89efdaa54c0f20c7adf612882df0950f5a951637e0307cdcb4c672f298b8bc6606082015246608082018190523060a08301529060c00160408051808303601f1901815291905280516020909101206003555033606081901b608052612923610159600039600081816105630152818161151e015281816116a801528181611c3e015261213a01526129236000f3fe6080604052600436106101bb5760003560e01c80637ecebe00116100ec578063ad5c46481161008a578063d6b264a611610064578063d6b264a6146105a5578063dd62ed3e146105c5578063f67337c2146105fd578063f8c8765e1461061d57600080fd5b8063ad5c464814610531578063c45a015514610551578063d505accf1461058557600080fd5b806395d89b41116100c657806395d89b411461049d5780639a696c5c146104dc5780639d491203146104fc578063a9059cbb1461051157600080fd5b80637ecebe001461042f5780637f4aa6551461045c57806383ef916e1461047c57600080fd5b8063313ce5671161015957806352fc0dba1161013357806352fc0dba146103a25780635f8c0fb3146103c25780636370f94c146103e257806370a082311461040257600080fd5b8063313ce567146103455780633644e5151461036c5780633782dbef1461038257600080fd5b80631cd4a3fa116101955780631cd4a3fa1461029957806323b872dd146102d15780632cfc6518146102f157806330adf81f1461031157600080fd5b806306fdde03146101ef578063095ea7b31461024557806318160ddd1461027557600080fd5b366101ea576007546001600160a01b031633146101e857634e487b7160e01b600052600160045260246000fd5b005b600080fd5b3480156101fb57600080fd5b5061022f60405180604001604052806014815260200173426c756562657272795061796d656e74204c507360601b81525081565b60405161023c919061270d565b60405180910390f35b34801561025157600080fd5b5061026561026036600461258a565b61063d565b604051901515815260200161023c565b34801561028157600080fd5b5061028b60005481565b60405190815260200161023c565b3480156102a557600080fd5b506005546102b9906001600160a01b031681565b6040516001600160a01b03909116815260200161023c565b3480156102dd57600080fd5b506102656102ec3660046123fd565b610653565b3480156102fd57600080fd5b506008546102b9906001600160a01b031681565b34801561031d57600080fd5b5061028b7f6e71edae12b1b97f4d1f60370fef10105fa2faae0126114a169c64845d6126c981565b34801561035157600080fd5b5061035a601281565b60405160ff909116815260200161023c565b34801561037857600080fd5b5061028b60035481565b34801561038e57600080fd5b5061026561039d3660046123a3565b6106e8565b3480156103ae57600080fd5b506102656103bd36600461255d565b610a24565b3480156103ce57600080fd5b506102656103dd3660046125b5565b610aa6565b3480156103ee57600080fd5b506102656103fd36600461243d565b610e36565b34801561040e57600080fd5b5061028b61041d3660046122d1565b60016020526000908152604090205481565b34801561043b57600080fd5b5061028b61044a3660046122d1565b60046020526000908152604090205481565b34801561046857600080fd5b5061026561047736600461243d565b611171565b34801561048857600080fd5b5060085461026590600160a01b900460ff1681565b3480156104a957600080fd5b5061022f604051806040016040528060138152602001720426c756562657272795061796d656e742d4c5606c1b81525081565b3480156104e857600080fd5b506102656104f73660046122d1565b6114ee565b34801561050857600080fd5b50610265611678565b34801561051d57600080fd5b5061026561052c36600461258a565b611854565b34801561053d57600080fd5b506007546102b9906001600160a01b031681565b34801561055d57600080fd5b506102b97f000000000000000000000000000000000000000000000000000000000000000081565b34801561059157600080fd5b506101e86105a03660046124e8565b611861565b3480156105b157600080fd5b506006546102b9906001600160a01b031681565b3480156105d157600080fd5b5061028b6105e0366004612310565b600260209081526000928352604080842090915290825290205481565b34801561060957600080fd5b506101e8610618366004612482565b611a77565b34801561062957600080fd5b506101e8610638366004612348565b611c33565b600061064a338484611cfb565b50600192915050565b6001600160a01b0383166000908152600260209081526040808320338452909152812054600019146106d3576001600160a01b03841660009081526002602090815260408083203384529091529020546106ae908390612822565b6001600160a01b03851660009081526002602090815260408083203384529091529020555b6106de848484611d5d565b5060019392505050565b6000600a546001146107155760405162461bcd60e51b815260040161070c906127ac565b60405180910390fd5b6000600a8190556008546040516312a2f18d60e31b8152600481018690528792869290916001600160a01b03909116906395178c689060240160c06040518083038186803b15801561076657600080fd5b505afa15801561077a573d6000803e3d6000fd5b505050506040513d601f19601f8201168201806040525081019061079e9190612605565b9050826001600160a01b031681604001516001600160a01b0316146108055760405162461bcd60e51b815260206004820152601a60248201527f4250533a3a4f6e6c7920437573746f6d657220616c6c6f776564000000000000604482015260640161070c565b6008546040516312a2f18d60e31b81526004808201899052889290916000916001600160a01b0316906395178c689060240160c06040518083038186803b15801561084f57600080fd5b505afa158015610863573d6000803e3d6000fd5b505050506040513d601f19601f820116820180604052508101906108879190612605565b90508160058111156108a957634e487b7160e01b600052602160045260246000fd5b816060015160058111156108cd57634e487b7160e01b600052602160045260246000fd5b146109265760405162461bcd60e51b815260206004820152602360248201527f4250533a3a4f726465725374617465204e6f742065787065637465642073746160448201526274757360e81b606482015260840161070c565b6001600160a01b038a1660009081526001602052604090205488811161095e5760405162461bcd60e51b815260040161070c90612740565b6109698d8c8b611e05565b6109738b8a611f5b565b6008546040516346bdb53360e01b8152600481018c90526001600160a01b03909116906346bdb53390602401600060405180830381600087803b1580156109b957600080fd5b505af11580156109cd573d6000803e3d6000fd5b505050508a6001600160a01b03168d6001600160a01b03166000805160206128ce8339815191528b604051610a0491815260200190565b60405180910390a350506001600a8190559b9a5050505050505050505050565b6005546000906001600160a01b03848116911614610a845760405162461bcd60e51b815260206004820152601f60248201527f4250533a3a4f6e6c79205061796d656e74204f776e657220416c6c6f77656400604482015260640161070c565b5060088054821515600160a01b0260ff60a01b19909116179055600192915050565b600854600090600160a01b900460ff161515600114610ad75760405162461bcd60e51b815260040161070c906127d5565b6008546040516312a2f18d60e31b815260048101859052859185916000916001600160a01b0316906395178c689060240160c06040518083038186803b158015610b2057600080fd5b505afa158015610b34573d6000803e3d6000fd5b505050506040513d601f19601f82011682018060405250810190610b589190612605565b9050826001600160a01b031681602001516001600160a01b031614610bba5760405162461bcd60e51b8152602060048201526018602482015277109414ce8e93db9b1e4814d95b1b195c88185b1b1bddd95960421b604482015260640161070c565b6008546040516312a2f18d60e31b81526004810188905287916000916001600160a01b03909116906395178c689060240160c06040518083038186803b158015610c0357600080fd5b505afa158015610c17573d6000803e3d6000fd5b505050506040513d601f19601f82011682018060405250810190610c3b9190612605565b9050600181606001516005811115610c6357634e487b7160e01b600052602160045260246000fd5b148015610c745750428160a0015111155b80610ca25750600281606001516005811115610ca057634e487b7160e01b600052602160045260246000fd5b145b610cbe5760405162461bcd60e51b815260040161070c90612777565b600a54600114610ce05760405162461bcd60e51b815260040161070c906127ac565b6000600a8190556001600160a01b038a1681526001602052604090205487811015610d1d5760405162461bcd60e51b815260040161070c90612740565b600754604051632e1a7d4d60e01b8152600481018a90526001600160a01b0390911690632e1a7d4d90602401600060405180830381600087803b158015610d6357600080fd5b505af1158015610d77573d6000803e3d6000fd5b50505050610d858a89611fef565b610d8f8a89611f5b565b6008546040516346bdb53360e01b8152600481018b90526001600160a01b03909116906346bdb53390602401600060405180830381600087803b158015610dd557600080fd5b505af1158015610de9573d6000803e3d6000fd5b50506007546040518b81526001600160a01b038e8116945090911691506000805160206128ce8339815191529060200160405180910390a350506001600a81905598975050505050505050565b6000600a54600114610e5a5760405162461bcd60e51b815260040161070c906127ac565b6000600a55600854600160a01b900460ff161515600114610e8d5760405162461bcd60e51b815260040161070c906127d5565b6008546040516312a2f18d60e31b815260048101859052859185916000916001600160a01b0316906395178c689060240160c06040518083038186803b158015610ed657600080fd5b505afa158015610eea573d6000803e3d6000fd5b505050506040513d601f19601f82011682018060405250810190610f0e9190612605565b9050826001600160a01b031681602001516001600160a01b031614610f705760405162461bcd60e51b8152602060048201526018602482015277109414ce8e93db9b1e4814d95b1b195c88185b1b1bddd95960421b604482015260640161070c565b6008546040516312a2f18d60e31b81526004810188905287916000916001600160a01b03909116906395178c689060240160c06040518083038186803b158015610fb957600080fd5b505afa158015610fcd573d6000803e3d6000fd5b505050506040513d601f19601f82011682018060405250810190610ff19190612605565b905060018160600151600581111561101957634e487b7160e01b600052602160045260246000fd5b14801561102a5750428160a0015111155b80611058575060028160600151600581111561105657634e487b7160e01b600052602160045260246000fd5b145b6110745760405162461bcd60e51b815260040161070c90612777565b6001600160a01b038916600090815260016020526040902054878110156110ad5760405162461bcd60e51b815260040161070c90612740565b6110b88b8b8a611e05565b6110c28a89611f5b565b6008546040516346bdb53360e01b8152600481018b90526001600160a01b03909116906346bdb53390602401600060405180830381600087803b15801561110857600080fd5b505af115801561111c573d6000803e3d6000fd5b50505050896001600160a01b03168b6001600160a01b03166000805160206128ce8339815191528a60405161115391815260200190565b60405180910390a350506001600a8190559998505050505050505050565b600854600090600160a01b900460ff1615156001146111a25760405162461bcd60e51b815260040161070c906127d5565b6008546040516312a2f18d60e31b815260048101859052869185916000916001600160a01b0316906395178c689060240160c06040518083038186803b1580156111eb57600080fd5b505afa1580156111ff573d6000803e3d6000fd5b505050506040513d601f19601f820116820180604052508101906112239190612605565b9050826001600160a01b031681604001516001600160a01b03161461128a5760405162461bcd60e51b815260206004820152601a60248201527f4250533a3a4f6e6c7920437573746f6d657220616c6c6f776564000000000000604482015260640161070c565b6008546040516312a2f18d60e31b81526004810188905287916000916001600160a01b03909116906395178c689060240160c06040518083038186803b1580156112d357600080fd5b505afa1580156112e7573d6000803e3d6000fd5b505050506040513d601f19601f8201168201806040525081019061130b9190612605565b905060018160600151600581111561133357634e487b7160e01b600052602160045260246000fd5b1480156113445750428160a0015111155b80611372575060028160600151600581111561137057634e487b7160e01b600052602160045260246000fd5b145b61138e5760405162461bcd60e51b815260040161070c90612777565b600a546001146113b05760405162461bcd60e51b815260040161070c906127ac565b6000600a8190556001600160a01b038a16815260016020526040902054878110156113ed5760405162461bcd60e51b815260040161070c90612740565b600754604051632e1a7d4d60e01b8152600481018a90526001600160a01b0390911690632e1a7d4d90602401600060405180830381600087803b15801561143357600080fd5b505af1158015611447573d6000803e3d6000fd5b505050506114558b89611fef565b61145f8a89611f5b565b6008546040516346bdb53360e01b8152600481018b90526001600160a01b03909116906346bdb53390602401600060405180830381600087803b1580156114a557600080fd5b505af11580156114b9573d6000803e3d6000fd5b50506007546040518b81526001600160a01b038e8116945090911691506000805160206128ce83398151915290602001611153565b6000600a546001146115125760405162461bcd60e51b815260040161070c906127ac565b6000600a8190555060007f00000000000000000000000000000000000000000000000000000000000000006001600160a01b031663017e7e586040518163ffffffff1660e01b8152600401602060405180830381600087803b15801561157757600080fd5b505af115801561158b573d6000803e3d6000fd5b505050506040513d601f19601f820116820180604052508101906115af91906122f4565b6001600160a01b038116600090815260016020526040902054909150806116185760405162461bcd60e51b815260206004820152601d60248201527f4250533a3a6275726e466565732046454520414d4f554e542049532030000000604482015260640161070c565b611623848383611e05565b61162d8282611f5b565b816001600160a01b0316846001600160a01b03166000805160206128ce8339815191528360405161166091815260200190565b60405180910390a36001925050506001600a55919050565b6000600a5460011461169c5760405162461bcd60e51b815260040161070c906127ac565b6000600a8190555060007f00000000000000000000000000000000000000000000000000000000000000006001600160a01b031663017e7e586040518163ffffffff1660e01b8152600401602060405180830381600087803b15801561170157600080fd5b505af1158015611715573d6000803e3d6000fd5b505050506040513d601f19601f8201168201806040525081019061173991906122f4565b6001600160a01b038116600090815260016020526040902054909150806117a25760405162461bcd60e51b815260206004820152601c60248201527f4250533a3a6275726e4665652046454520414d4f554e54204953203000000000604482015260640161070c565b600754604051632e1a7d4d60e01b8152600481018390526001600160a01b0390911690632e1a7d4d90602401600060405180830381600087803b1580156117e857600080fd5b505af11580156117fc573d6000803e3d6000fd5b5050505061180a8282611fef565b6118148282611f5b565b6007546040518281526001600160a01b038481169216906000805160206128ce8339815191529060200160405180910390a36001925050506001600a5590565b600061064a338484611d5d565b428410156118a85760405162461bcd60e51b8152602060048201526014602482015273109b1d5958995c9c9e558c8e881156141254915160621b604482015260640161070c565b6003546001600160a01b038816600090815260046020526040812080549192917f6e71edae12b1b97f4d1f60370fef10105fa2faae0126114a169c64845d6126c9918b918b918b9190876118fb83612869565b909155506040805160208101969096526001600160a01b0394851690860152929091166060840152608083015260a082015260c0810187905260e0016040516020818303038152906040528051906020012060405160200161197492919061190160f01b81526002810192909252602282015260420190565b60408051601f198184030181528282528051602091820120600080855291840180845281905260ff88169284019290925260608301869052608083018590529092509060019060a0016020604051602081039080840390855afa1580156119df573d6000803e3d6000fd5b5050604051601f1901519150506001600160a01b03811615801590611a155750886001600160a01b0316816001600160a01b0316145b611a615760405162461bcd60e51b815260206004820152601e60248201527f426c7565626572727956323a20494e56414c49445f5349474e41545552450000604482015260640161070c565b611a6c898989611cfb565b505050505050505050565b600a54600114611a995760405162461bcd60e51b815260040161070c906127ac565b6000600a5583611aeb5760405162461bcd60e51b815260206004820152601d60248201527f4250533a3a6d696e7420494e53554646494349454e545f414d4f554e54000000604482015260640161070c565b60008311611b455760405162461bcd60e51b815260206004820152602160248201527f4250533a3a6d696e7420494e53554646494349454e545f4645455f414d4f554e6044820152601560fa1b606482015260840161070c565b611b4f85856120b1565b846001600160a01b03167f0f6798a560793a54c3bcfe86a93cde1e73087d944c0ea20544137d412139688585604051611b8a91815260200190565b60405180910390a2611b9b83612136565b600854604051635ef1160d60e11b81526001600160a01b039091169063bde22c1a90611bd39088908a908990889088906004016126b9565b602060405180830381600087803b158015611bed57600080fd5b505af1158015611c01573d6000803e3d6000fd5b505050506040513d601f19601f82011682018060405250810190611c2591906125e9565b50506001600a555050505050565b336001600160a01b037f00000000000000000000000000000000000000000000000000000000000000001614611cab5760405162461bcd60e51b815260206004820152601960248201527f4250533a3a696e697469616c697a6520464f5242494444454e00000000000000604482015260640161070c565b600680546001600160a01b039586166001600160a01b0319918216179091556007805494861694821694909417909355600880549285169284169290921790915560058054919093169116179055565b6001600160a01b0383811660008181526002602090815260408083209487168084529482529182902085905590518481527f8c5be1e5ebec7d5bd14f71427d1e84f3dd0314c0f7b2291e5b200ac8c7c3b92591015b60405180910390a3505050565b6001600160a01b038316600090815260016020526040902054611d81908290612822565b6001600160a01b038085166000908152600160205260408082209390935590841681522054611db190829061280a565b6001600160a01b0380841660008181526001602052604090819020939093559151908516907fddf252ad1be2c89b69c2b068fc378daa952ba7f163c4a11628f55a4df523b3ef90611d509085815260200190565b604080518082018252601981527f7472616e7366657228616464726573732c75696e74323536290000000000000060209182015281516001600160a01b0385811660248301526044808301869052845180840390910181526064909201845291810180516001600160e01b031663a9059cbb60e01b17905291516000928392871691611e91919061269d565b6000604051808303816000865af19150503d8060008114611ece576040519150601f19603f3d011682016040523d82523d6000602084013e611ed3565b606091505b5091509150818015611efd575080511580611efd575080806020019051810190611efd91906125e9565b611f545760405162461bcd60e51b815260206004820152602260248201527f4250533a3a5f736166655472616e73666572205452414e534645525f4641494c604482015261115160f21b606482015260840161070c565b5050505050565b6001600160a01b038216600090815260016020526040902054611f7f908290612822565b6001600160a01b03831660009081526001602052604081209190915554611fa7908290612822565b60009081556040518281526001600160a01b038416907fddf252ad1be2c89b69c2b068fc378daa952ba7f163c4a11628f55a4df523b3ef906020015b60405180910390a35050565b604080516000808252602082019092526001600160a01b038416908390604051612019919061269d565b60006040518083038185875af1925050503d8060008114612056576040519150601f19603f3d011682016040523d82523d6000602084013e61205b565b606091505b50509050806120ac5760405162461bcd60e51b815260206004820152601b60248201527f4250533a3a736166655472616e73666572455448206661696c65640000000000604482015260640161070c565b505050565b806000546120bf919061280a565b60009081556001600160a01b0383168152600160205260409020546120e590829061280a565b6001600160a01b0383166000818152600160205260408082209390935591519091907fddf252ad1be2c89b69c2b068fc378daa952ba7f163c4a11628f55a4df523b3ef90611fe39085815260200190565b60007f00000000000000000000000000000000000000000000000000000000000000006001600160a01b031663017e7e586040518163ffffffff1660e01b8152600401602060405180830381600087803b15801561219357600080fd5b505af11580156121a7573d6000803e3d6000fd5b505050506040513d601f19601f820116820180604052508101906121cb91906122f4565b90506001600160a01b0381166122235760405162461bcd60e51b815260206004820152601e60248201527f6d696e744665653a20666565546f2061646472657373206e6f74207365740000604482015260640161070c565b600082116122735760405162461bcd60e51b815260206004820152601c60248201527f4250533a3a6d696e744665652046454520414d4f554e54204953203000000000604482015260640161070c565b61227d81836120b1565b60405182815233907f0f6798a560793a54c3bcfe86a93cde1e73087d944c0ea20544137d41213968859060200160405180910390a25050565b80516122c18161289a565b919050565b80516122c1816128c0565b6000602082840312156122e2578081fd5b81356122ed8161289a565b9392505050565b600060208284031215612305578081fd5b81516122ed8161289a565b60008060408385031215612322578081fd5b823561232d8161289a565b9150602083013561233d8161289a565b809150509250929050565b6000806000806080858703121561235d578182fd5b84356123688161289a565b935060208501356123788161289a565b925060408501356123888161289a565b915060608501356123988161289a565b939692955090935050565b600080600080600060a086880312156123ba578081fd5b85356123c58161289a565b945060208601356123d58161289a565b935060408601356123e58161289a565b94979396509394606081013594506080013592915050565b600080600060608486031215612411578283fd5b833561241c8161289a565b9250602084013561242c8161289a565b929592945050506040919091013590565b60008060008060808587031215612452578384fd5b843561245d8161289a565b9350602085013561246d8161289a565b93969395505050506040820135916060013590565b60008060008060008060c0878903121561249a578081fd5b86356124a58161289a565b955060208701356124b58161289a565b945060408701359350606087013592506080870135915060a08701356124da816128c0565b809150509295509295509295565b600080600080600080600060e0888a031215612502578485fd5b873561250d8161289a565b9650602088013561251d8161289a565b95506040880135945060608801359350608088013560ff81168114612540578182fd5b9699959850939692959460a0840135945060c09093013592915050565b6000806040838503121561256f578182fd5b823561257a8161289a565b9150602083013561233d816128b2565b6000806040838503121561259c578182fd5b82356125a78161289a565b946020939093013593505050565b6000806000606084860312156125c9578081fd5b83356125d48161289a565b95602085013595506040909401359392505050565b6000602082840312156125fa578081fd5b81516122ed816128b2565b600060c08284031215612616578081fd5b60405160c0810181811067ffffffffffffffff8211171561264557634e487b7160e01b83526041600452602483fd5b60405282518152612658602084016122b6565b6020820152612669604084016122b6565b604082015261267a606084016122c6565b60608201526080830151608082015260a083015160a08201528091505092915050565b600082516126af818460208701612839565b9190910192915050565b6001600160a01b03868116825285166020820152604081018490526060810183905260a08101600683106126fd57634e487b7160e01b600052602160045260246000fd5b8260808301529695505050505050565b602081526000825180602084015261272c816040850160208701612839565b601f01601f19169190910160400192915050565b6020808252601e908201527f4250533a3a6275726e20494e53554646494349454e545f42414c414e43450000604082015260600190565b6020808252818101527f4250533a3a4e6f7420657870656374656420737461747573206f722074696d65604082015260600190565b6020808252600f908201526e109414ce9b1bd8dac81313d0d2d151608a1b604082015260600190565b6020808252818101527f4250533a3a5061796d656e7453797374656d206973206e6f7420616374697665604082015260600190565b6000821982111561281d5761281d612884565b500190565b60008282101561283457612834612884565b500390565b60005b8381101561285457818101518382015260200161283c565b83811115612863576000848401525b50505050565b600060001982141561287d5761287d612884565b5060010190565b634e487b7160e01b600052601160045260246000fd5b6001600160a01b03811681146128af57600080fd5b50565b80151581146128af57600080fd5b600681106128af57600080fdfebac40739b0d4ca32fa2d82fc91630465ba3eddd1598da6fca393b26fb63b9453a2646970667358221220c0a94c87de37992a8a801e332dc1774e68a188d5175e0a76a334070779e27a2564736f6c63430008040033",
  "linkReferences": {},
  "deployedLinkReferences": {}
}